:020000040800F2
:10000000C8080020E5010008B90A0008B50A000880
:10001000B70A00086707000867140008000000001E
:10002000000000000000000000000000250D000896
:10003000B507000800000000350B0008950E000809
:10004000FF010008FF010008FF010008FF01000890
:10005000FF010008FF010008F1070008310800084F
:1000600071080008B1080008FF010008FF0100083E
:10007000FF010008FF010008FF010008FF01000860
:10008000FF010008FF010008FF010008FF01000850
:10009000FF010008FF010008FF010008F108000847
:1000A000FF010008F90E0008FF010008FF01000829
:1000B000FF010008B50F0008FF010008FF0100085C
:1000C000FF010008FF010008FF010008FF01000810
:1000D000FF01000855110008FF010008FF0100089A
:1000E000FF010008FF010008FF010008FF010008F0
:1000F000FF010008FF010008FF010008FF010008E0
:10010000FF010008FF010008FF010008FF010008CF
:10011000D1100008FF010008FF010008FF010008DE
:10012000FF010008FF010008FF010008FF010008AF
:1001300000F002F800F047F80AA090E8000C8244B2
:100140008344AAF10107DA4501D100F03CF8AFF28F
:10015000090EBAE80F0013F0010F18BFFB1A43F0A5
:10016000010318473417000054170000103A24BF49
:1001700078C878C1FAD8520724BF30C830C144BF0C
:1001800004680C607047000000230024002500264E
:10019000103A28BF78C1FBD8520728BF30C148BFEA
:1001A0000B6070471FB59DE8030000F021F900F0D7
:1001B000CBF904000020002101F058FB401C6060D6
:1001C0001FBD10B510BD00F019FA1146FFF7EAFF88
:1001D00001F0E0F900F037FA03B4FFF7F2FF03BCD7
:1001E00001F0B8F90948804709480047FEE7FEE7F3
:1001F000FEE7FEE7FEE7FEE7FEE7FEE7FEE7FEE7D7
:1002000004480549054A064B70470000A90E00083E
:1002100031010008C8020020C8080020C8040020DE
:10022000C8040020704770B5064600F0C1F80568A4
:1002300006F10B0020F00704B4429CBF002070BD03
:100240002B466A68BAB11068A04210D304F10801C5
:1002500088423CBF5068586007D35168101941600C
:100260001168091B016058601460101D70BD1346B1
:100270005268002AE7D12146284600F0A5F8002858
:10028000DED170BD70B50446051F00F091F800681E
:10029000002C14BF446870BD002C18BFAC423CBF9A
:1002A00020466468F8D301680A18AA4218BF45605E
:1002B00003D12A6805461144016028684119A1420A
:1002C0001CBF6C6070BD616869602168084428606B
:1002D00070BD2DE9F04791460F4680460446002642
:1002E00014F8015B2DB100F05BF80068405DC007B9
:1002F000F6D12B2D02D02D2D18D0641E4A4639463A
:10030000204600F0ABF827B13968A14201D1C7F807
:1003100000804FF0020471050BD54042002803DD38
:1003200000F04AF80460A007BDE8F08746F4806654
:10033000E4E70028F8DA00F03FF804606FF00040CE
:10034000F2E710B5044610F0030F08BF11F0030FD9
:1003500040F015804FF0013E121FC0F20E8051F8A0
:10036000043BA3EB0E0C2CEA030C1CEACE1C08BFCA
:1003700040F8043BF0D0A1F1040102F10402521E46
:1003800008DB11F8013B002B00F8013BF7D11146C7
:1003900000F0B3F8204610BD7047704770477047B3
:1003A00010B500F0D1F8001D10BD00BFC114000051
:1003B0000048704770020020004870476802002023
:1003C000704770477047704738B504460A460020AA
:1003D0006946AFF30080002808BF38BD0246009987
:1003E000204600F0B5F8012038BD012000F0D8B853
:1003F000F8B5AFF30080054600200C46102000BF82
:100400000646A819A0420DD9324669460020AFF32E
:100410000080070008BF00F0C3F80098A04218BF92
:100420000546C419FFF7C4FF05600746F01D20F01C
:1004300007004619284600F00AF8B44208BFF8BD84
:10044000A21B31463868BDE8F84000F081B80021B1
:100450000160C0E901107047102070472DE9F05F7E
:10046000824615468B4600270AF10104B9460078FA
:10047000302801D09DB113E014F8010B0127782832
:1004800003D0582801D045B10AE00DB1102D07D195
:10049000002714F8010B102502E0082500E00A25CA
:1004A0000026B0460EE005FB080005FB06F101271B
:1004B0001FFA80F801EB1046B6F5803F00D3B9462D
:1004C00014F8010B294600F05DF80028EBDABBF1C7
:1004D000000F05D00FB1641E00E05446CBF8004079
:1004E000B9F1000F06D0FFF767FF02210160C81EB7
:1004F000BDE8F09F48EA0640FAE74FF00002042901
:10050000C0F0128010F0030C00F05380CCF1040C0A
:10051000BCF1020F18BF00F8012BA8BF20F8022B76
:10052000A1EB0C0100F045B85FEAC17C24BF00F8E4
:10053000012B00F8012B48BF00F8012B7047000089
:100540000048704768020020004870478802002079
:10055000034640688C46002818BF88423CBF0346CB
:100560004068F8D318681844884207D00CF103009B
:1005700020F00700001D411A521A0146081D0A60AA
:10058000FFF780BE3A2800D2303820F02002412AFE
:1005900001D3A2F13700884201D34FF0FF307047FA
:1005A00010B500F05FF8BDE8104000F055B84FF00E
:1005B000000200B5134694469646203922BFA0E8B3
:1005C0000C50A0E80C50B1F12001BFF4F7AF0907BF
:1005D00028BFA0E80C5048BF0CC05DF804EB8900B0
:1005E00028BF40F8042B08BF704748BF20F8022BF3
:1005F00011F0804F18BF00F8012B70477546FFF7C8
:100600009FFFAE4605006946534620F00700854629
:1006100018B020B5FFF7F4FDBDE820404FF000060C
:100620004FF000074FF000084FF0000B21F00701DA
:10063000AC46ACE8C009ACE8C009ACE8C009ACE81D
:10064000C0098D46704710B50446AFF300802046C0
:10065000BDE81040FFF7C0BD002801D000F07ABF10
:100660007047000010B5012805D0002103A000F05C
:1006700061F8012010BD09A1F8E700005349475275
:10068000544D454D3A204F7574206F662068656162
:1006900070206D656D6F7279000000003A2048652A
:1006A0006170206D656D6F727920636F7272757005
:1006B000746564004FF0013C50F8042B51F8043B82
:1006C0009A4221D1A2EB0C03934313EACC1317D126
:1006D00050F8042B51F8043B9A4215D1A2EB0C03BD
:1006E000934313EACC130BD150F8042B51F8043B7D
:1006F0009A4209D1A2EB0C03934313EACC13DBD04B
:100700004FF00000704700BFD01A01BAB1FA81F172
:1007100001F0180122FA01F0CB40C1F12001DBB257
:10072000C0B2C01A2CFA01F3D11A914311EAC311D5
:10073000E6D1704770B505460C460A2000E06D1CF6
:1007400000F009FF35B128780028F8D102E0641CD8
:1007500000F001FF14B120780028F8D1BDE8704006
:100760000A2000F0F8BEFEE708B50121102000F0D5
:10077000F1F94FF48050ADF8000003208DF802002D
:1007800010208DF803006946014800F035F908BDD6
:10079000001001404FF48051014800F089B9000079
:1007A000001001404FF48051014800F07FB9000073
:1007B00000100140704700B502464FF47A7302E022
:1007C000184600F004F8521E501CF9D100BD00EB91
:1007D000C000C1004FF0E02041610021816105218E
:1007E00001610169C903FCD5042101617047000062
:1007F00010B5012000F0F0F800280FD001210A48C0
:1008000000F04DF9094C2070012000F0DFF820784D
:100810006178884203D16068401E606010BD6068E6
:10082000401C606010BD000000100140540000201A
:1008300010B5022000F0D0F800280FD002210A489D
:1008400000F02DF9094C6070022000F0BFF820780C
:100850006178884203D16068401C606010BD6068A8
:10086000401E606010BD00000010014054000020D8
:1008700010B5042000F0B0F800280FD004210A4879
:1008800000F00DF9094C2070042000F09FF820784A
:100890006178884203D16068401E606010BD606866
:1008A000401C606010BD000000100140740000207A
:1008B00010B5082000F090F800280FD008210A4851
:1008C00000F0EDF8094C6070082000F07FF8207807
:1008D0006178884203D16068401C606010BD606828
:1008E000401E606010BD0000001001407400002038
:1008F00070B5402000F070F8324E334C98B1402172
:10090000304600F0CCF82070402000F05FF82078EE
:100910006178884203D16068401E606070BD606885
:10092000401C606070BD802000F056F898B18021B6
:10093000304600F0B4F86070802000F047F820786E
:100940006178884203D16068401C606070BD606857
:10095000401E606070BD4FF48075284600F03CF882
:10096000194C203498B12946304600F098F8207090
:10097000284600F02BF820786178884203D160681F
:10098000401E606070BD6068401C606070BD4FF4C8
:100990000075284600F020F80028F7D02946304698
:1009A00000F07DF86070284600F010F8207861783B
:1009B000884203D16068401C606070BD6068401E62
:1009C000606070BD00100140940000200149086083
:1009D000704700001404014001460020054A1268D7
:1009E0000A40044B14331B680B4202D0002A00D08B
:1009F00001207047000401402DE9F0410022CC782D
:100A000004F00F03E40601D58C7823430C784FF0F3
:100A10000F0714F0FF0F4FF0010C1CD005680CFA03
:100A200002F40E882640A64211D1960007FA06F875
:100A300025EA080503FA06F848EA0505CE78282EC7
:100A400002D0482E02D002E0446100E00461521C52
:100A5000082AE4D305600A88FF2A1ED945680022C7
:100A600002F108060CFA06F40E882640A64210D1C0
:100A7000960007FA06F825EA080503FA06F848EA98
:100A80000505CE78282E00D14461CE78482E00D1BD
:100A90000461521C082AE3D34560BDE8F081024698
:100AA000002092680A4200D00120704741617047DF
:100AB00001617047FEE7FEE77047000070B50F2345
:100AC000C27801260178002A1ED0144A126802F466
:100AD000E062C2F5E062120AC2F10404D340457834
:100AE000A54082781A402A43120101F1E02181F8E1
:100AF0000024007800F01F018E404009800000F1C2
:100B0000E020C0F8006170BD01F01F008640480978
:100B1000800000F1E020C0F8806170BD0CED00E0C5
:100B20000249084302490860704700000000FA05C6
:100B30000CED00E070470000054A002903D0D169A0
:100B40000143D1617047D1698143D1617047000091
:100B500000100240054A002903D0916901439161C8
:100B60007047916981439161704700000010024015
:100B700010B5264A516801F00C01254B002927D0F9
:100B8000042927D0082927D00360516801F0F0011B
:100B90000909204B5C5C0168E1404160546804F441
:100BA000E064240A1C5D21FA04F48460546804F4AF
:100BB0006054E40A1B5DD940C160526802F44042AF
:100BC000920B144B1B1F9A5CB1FBF2F1016110BD3B
:100BD0000360DAE70360D8E7516801F470115368E5
:100BE00003F48033022404EB914133B153689B0337
:100BF00007D5094B59430160C7E7074B59430160CB
:100C0000C3E7034B59430160BFE7000000100240F7
:100C100000127A000400002000093D00F8B501210F
:100C20000820FFF797FF10248DF803404FF460462B
:100C3000ADF8006003258DF802500E4F6946384626
:100C4000FFF7DAFE31463846FFF732FF0121102068
:100C5000FFF780FF8DF80340ADF800408DF802509B
:100C6000054C69462046FFF7C7FE10212046FFF7D6
:100C70001FFFF8BD000C01400010014030B50C49C9
:100C8000887808700B1D997819701D1DA978297036
:100C90002C1DA178217000F00DF8A87800F026F83E
:100CA000987800F031F8A078BDE8304000F010B836
:100CB0001E000020054A5178814201D9084603E010
:100CC000D178814200D20846107070471E00002083
:100CD000054A5178814201D9084603E0D178814222
:100CE00000D20846107070472A000020054A51784B
:100CF000814201D9084603E0D178814200D20846FA
:100D00001070704726000020054A5178814201D9B1
:100D1000084603E0D178814200D20846107070473F
:100D200022000020704710B5FFF778FF00F004F8AC
:100D3000BDE81040FFF7A2BF1FB50121C802FFF7B1
:100D400009FF184C204600F06FF90021ADF80A1099
:100D5000ADF806100922ADF808204720ADF80400D0
:100D60008DF80C1001A9204600F064F901212046FD
:100D700000F032F901221146204600F04BF919200B
:100D80008DF8000001218DF8031002208DF801007C
:100D90008DF802106846FFF791FE0121204600F011
:100DA00021F91FBD002C0140AFF300800CB50022DB
:100DB000019200922748016841F4803101604FF4AC
:100DC000A063016801F4003100910199491C01916F
:100DD000009911B901999942F3D10168890302D5AB
:100DE0000121009100E000920099012930D11A49B7
:100DF0000A6842F010020A600A6822F003020A60E0
:100E00000A6842F002020A6041684160416841603C
:100E1000416841F480614160416821F47C11416086
:100E2000416841F4E8114160016841F0807101605E
:100E300001688901FCD5416821F0030141604168E6
:100E400041F0020141604168C1F381010229FAD1F8
:100E50000CBD000000100240002002400A4948601A
:100E600040F2654141434FF08072B2EB811F0AD9D5
:100E7000064948434FF0E021486100208861044A58
:100E8000107007200861704714000020401901000D
:100E900023ED00E000B5034B5868FFF7DFFF0120AA
:100EA000187000BD1400002010B50F48016841F013
:100EB0000101016041680D4A1140416001680C4A1E
:100EC00011400160016821F480210160416821F432
:100ED000FE0141604FF41F018160FFF765FF054986
:100EE0004FF00060086010BD001002400000FFF8E5
:100EF000FFFFF6FE08ED00E070B52A4C0121204608
:100F000000F07CF800284CD00121204600F067F862
:100F1000254C2088401C80B22080B0F5FA6F01D9A2
:100F2000002020802048214D801C4FF40051027881
:100F30002088824203D92846FFF7BAFD02E02846FE
:100F4000FFF7B4FD18484FF48041801D02782088D7
:100F5000824203D92846FFF7ABFD02E02846FFF79F
:100F6000A5FD114822880A304FF4004100789042D4
:100F700003D92846FFF79CFD02E02846FFF796FDBF
:100F8000094822880E3001780948914204D9BDE809
:100F900070401021FFF78CBDBDE870401021FFF7B5
:100FA00085BD70BD002C01401C000020000C0140DC
:100FB0000010014010B5074C0121204600F01EF83A
:100FC000002805D02046BDE81040012100F007B8F8
:100FD00010BD000000040040C94301827047C943AE
:100FE00001827047002904D0018841F0010101808D
:100FF0007047018821F001010180704702460020FE
:10100000138A0B4092890A40002B02D0002A00D09C
:1010100001207047002A03D082890A4382817047E9
:1010200082898A4382817047018921F00701018109
:101030007047000030B502881B4C1C4DA0420DD0FB
:10104000A8420BD0B0F1804F08D0194B984205D080
:10105000184B984202D0184B984203D122F07003EB
:101060004A881A43154B984206D0154B984203D034
:1010700022F44073CA881A4302808A8882850A88CB
:101080000285A0420AD0A84208D00E4A904205D05C
:101090000D4A904202D00D4A904201D1097A018650
:1010A0000121818230BD0000002C0140003401404C
:1010B0000004004000080040000C00400010004008
:1010C000001400400040014000440140004801403D
:1010D00070B51D4C2021204600F08EF8012832D139
:1010E000204600F009F9194BC1B29970187801280F
:1010F0000AD117485A788154521CD2B25A70986853
:10110000824201DB022018701A790020012612B1F8
:10111000012A05D011E040290FD11E7158710CE051
:101120000B4D643D0A2904D05A79A954521C5A71B6
:1011300003E0187159796854DE702046BDE87040AC
:10114000202100F045B870BD004C00403000002068
:101150003801002070B5194C2021204600F04CF8D1
:1011600001282AD1204600F0C7F8154BC1B21970EA
:101170009A78002001252AB1124E012A07D0022AAE
:101180000FD014E0402912D19D70D8700FE00D29C6
:1011900004D0DA78B154521CDA7008E0022098705A
:1011A00005E00A2903D19870D97870545D70204603
:1011B000BDE87040202100F00BB870BD0038014040
:1011C0003C000020D40000208A05C94301807047FC
:1011D00040F66A120A0A01219140C9430180704712
:1011E000002904D0818941F40051818170478189AF
:1011F00021F40051818170470246002012880A4282
:1012000000D00120704710B540F66A13C1F34213B5
:1012100001F01F040121A140012B07D0022B07D0B0
:1012200014303AB102680A43026010BD0C30F8E78E
:101230001030F6E702688A43026010BD30B585B011
:1012400004460D46208A4CF6FF710840E9880143A8
:101250002182A0894EF6F3110840A9882A891143FA
:101260006A8902431143A181A08A4FF6FF410840D9
:10127000A9890143A1826846FFF77AFC1D48844290
:1012800001D1039800E00298A189090408D500EB78
:10129000C00101EB001029684900B0FBF1F007E044
:1012A00000EBC00101EB001029688900B0FBF1F0F0
:1012B0006422B0FBF2F109010B096FF018056B43D2
:1012C00000EB8300A3891D044FF0320307D503EB25
:1012D000C000B0FBF2F000F00700084306E003EBAB
:1012E0000010B0FBF2F000F00F000843208105B0C1
:1012F00030BD0000003801408088C0F3080070470E
:10130000C1F30801818070470148407970470000AF
:10131000300000200448C178012901D00020704726
:101320000021C17001207047300000200048704744
:10133000D400002030B587B00121C804FFF7FCFBC2
:1013400001211020FFF706FC18208DF81B004FF438
:101350008060ADF8180003248DF81A40204D06A9CE
:101360002846FFF749FB48218DF81B10E914ADF81A
:1013700018108DF81A4006A92846FFF73DFB4FF4D8
:10138000165002900020ADF814000C21ADF8121098
:10139000ADF81000ADF80E00ADF80C00114C02A92C
:1013A0002046FFF74BFF012240F225512046FFF770
:1013B0002AFF40212046FFF707FF34218DF8041053
:1013C00001218DF807108DF805108DF8061001A881
:1013D000FFF774FB01212046FFF702FF07B030BD85
:1013E00000100140004C00400346012000E058433B
:1013F000491E4A1CFBD1704710B5064C01462046D9
:10140000FFF77EFF80212046FFF7F6FE0028F9D087
:1014100010BD0000004C00402DE9F04107460E468B
:1014200000240A250FE0311B491E0A20FFF7DCFFCC
:10143000B7FBF0F0B0FBF5F105FB11003030FFF722
:10144000DBFF641CE4B2B442EDD3BDE8F08170B5BB
:101450000546002403E0FFF7CFFF641CE4B2285DDB
:101460000028F8D170BDFEE730B587B00121042017
:10147000FFF770FB01218803FFF76CFB18208DF844
:101480001B004FF40070ADF8180003248DF81A40CB
:101490001E4D06A92846FFF7AFFA04218DF81B1050
:1014A0000902ADF818108DF81A4006A92846FFF772
:1014B000A3FA174802900020ADF814000C21ADF8F3
:1014C0001210ADF81000ADF80E00ADF80C00114C84
:1014D00002A92046FFF7B2FE012240F22551204624
:1014E000FFF791FE25218DF8041001218DF80710DA
:1014F0008DF805108DF8061001A8FFF7DFFA01211D
:101500002046FFF76DFE07B030BD00000008014027
:1015100040420F000038014070B505460E460024D9
:1015200004E0285D00F006F8641CA4B2B442F8D3CD
:1015300070BD000010B5064C01462046FFF7E0FEE6
:1015400080212046FFF758FE0028F9D010BD00008A
:10155000003801407047704710B50023002204E0B6
:10156000845C23449BB2521CD2B28A42F8D3D84343
:10157000C0B210BD01460120B1F57A7F01D304202D
:101580007047632901D9032070470929FCD902203B
:10159000704700006420FFF70EF9FFF7E5F8FFF74A
:1015A00001F9C820FFF707F9FFF7F4F8FFF7C2FECB
:1015B0004EA0FFF74CFF00F015F9B421012000F018
:1015C0001AF94FF47A70FFF7F6F80021012000F0C5
:1015D00012F972B64FF4A060FFF7A2FAFFF7A3FB6F
:1015E0000520FFF73BFC62B6424CFFF793FE002854
:1015F000FBD0FFF79BFE206041782029F5D10078D1
:101600006C2809D0722807D0622805D0662803D03C
:10161000752801D06428E8D1642804D0752804D145
:1016200000F06EF801E000F08FF8FFF76DFE216822
:10163000821E891C3048FEF784FEFFF765FE2E49A6
:101640000844002100F8021C2B48FFF700FF0A2085
:10165000FFF7D2FE27490A220C312748FEF739FE50
:10166000606026A0FFF7F3FE6068FFF783FF014686
:101670006068FFF7D1FE2020FFF7BEFE20680078EB
:10168000622810D0662828D06C2802D0722828D171
:1016900004E0A08880B2FFF70DFB22E0A08880B2B2
:1016A000FFF724FB1DE01349E0680A221031401CBB
:1016B000FEF70FFEA060FFF75DFF0146A068FFF791
:1016C000ABFE2020FFF798FEA08881B2012000F039
:1016D00092F8A068FFF76FF803E0A08880B2FFF7E8
:1016E00013FB0A20FFF788FE7FE700006265676949
:1016F0006E0A0000400000200102002072653A00DE
:1017000010B5FFF7BBFA0721012000F074F86E2036
:10171000FFF7FAFA8C20FFF7CDFADC20FFF7E6FAA4
:101720004FF4FA60FFF747F89420FFF7EDFA4FF413
:101730007A742046FFF73FF88C20FFF7D7FA20464F
:10174000BDE81040FFF737B810B5DC20FFF7B2FA5C
:10175000BB21012000F04FF84FF47A742046FFF7C8
:101760002AF8AA20FFF7C2FA2046FFF724F86E20D5
:10177000FFF7CAFA2046FFF71EF88C20FFF7B6FAEB
:101780009320FFF7C1FA0721012000F034F820462A
:10179000FFF711F88C20FFF78DFA2046BDE81040C6
:1017A000FFF709B82DE9F0410746884616461D4661
:1017B000681CFEF738FD044684F80080002003E032
:1017C0002218315C5170401CA842F9DBED1CE9B2D3
:1017D00023460322384600F01FF82046BDE8F041BA
:1017E000FEF750BD10B5FFF73FFE0021BDE81040E9
:1017F0000120AFF3008008B509034FF4B472B1FBC8
:10180000F2F18DF80010090A8DF8011002236A46E2
:101810002A21FFF7C7FF08BD2DE9F04107460D4615
:1018200090461E46281DFEF7FEFC0446FF2121704F
:101830006170A770E57084F804800020A91E03E0A1
:101840002318325C5A71401C8842F9DB681CC1B213
:10185000A01CFFF781FE6119C870291D2046FFF703
:101860005BFE2046BDE8F041FEF70CBD10B5002937
:101870000AD00878002807D005487844FEF71AFFF8
:10188000002801D0002010BD0248784410BD00009F
:101890003E00000036000000C819000800000020CB
:1018A000540000006C0100081C1A000854000020BD
:1018B00074080000880100081001000043000000C7
:1018C000F8FFFFFF00404040404040404040414161
:1018D0004141414040404040404040404040404005
:1018E000404040404005020202020202020202029F
:1018F000020202020220202020202020202020029C
:10190000020202020202909090909090101010102B
:1019100010101010101010101010101010101010C7
:10192000020202020202888888888888080808085B
:101930000808080808080808080808080808080827
:10194000020202024000000000000000000000004F
:101950000000000000000000000000000000000087
:101960000000000000000000000000000000000077
:101970000000000000000000000000000000000067
:101980000000000000000000000000000000000057
:101990000000000000000000000000000000000047
:1019A0000000000000000000000000000000000037
:1019B0000000000000000000000000000000000027
:1019C0000000000000000000020406080000000003
:1019D00001020304010203040607080900000000D5
:1019E000000000000000968296FA965096B9965034
:1019F00096DC003291FA00000000000000000000B8
:101A000000000000000000000000000000000000D6
:0C1A1000000000000000000000000000CA
:0400000508000131BD
:00000001FF
